:100000000C942A000C9447000C9447000C94470071
:100010000C9447000C9447000C9447000C94470044
:100020000C9447000C9447000C9447000C94470034
:100030000C9447000C9447000C9447000C94470024
:100040000C9466000C9447000C9447000C944700F5
:100050000C94470011241FBECFE5D8E0DEBFCDBF12
:1000600010E0A0E6B0E0EAE1F1E002C005900D92F8
:10007000A036B107D9F710E0A0E6B0E001C01D92AC
:10008000A236B107E1F70E947F000C948B000C941C
:100090000000CF93DF9300D0CDB7DEB710C01A8237
:1000A000198206C029813A812F5F3F4F3A83298305
:1000B00029813A8191E0293C3907A1F781508823B1
:1000C00071F70F900F90DF91CF9108951F920F92CB
:1000D0000FB60F9211248F939F9385B190E0880FF4
:1000E000991F880F991F9093610080936000369A42
:1000F0009F918F910F900FBE0F901F9018958AE0DF
:1001000087BB339A3D9A3E9A329A379A7894369AB8
:0A01100088E088BBFECFF894FFCF13
:00000001FF
